:060000000A128A110C280F
:10000800FE00030EF4000A08F5000A128A111728E8
:100018000A128A110F28F601F701F801F901830184
:100028000A128A11B628831203130C1F1C281D28D4
:1000380030281F0CF200720C0F39003A031D2528D6
:1000480026282F281E08F200F3017208F80073080A
:10005800F900780887000C130B1C3328342865280E
:100068000618372838283F280130F6000030F700F6
:100078000914630064288618422843285628760302
:100088007704031D482849285628F601F701091066
:1000980000300A128A11E1200A128A11831203130E
:1000A80088006428061959285A2864287808F20014
:1000B8007208F00000300A128A11CC200A128A1144
:1000C8000B1075088A00740E8300FE0E7E0E090060
:1000D800831603130F088F3960388F000F1401300F
:1000E80083160317880089010130831603138500DE
:1000F8008601061486140615870188018901831272
:10010800031385018601870188018901831603137A
:100118008113151495141515831203130C138316E4
:1001280003130C178B170B178B151614961416152B
:10013800C030831203139F04831603131F129F12E8
:10014800C330831203139F05831603139F1383126F
:1001580003131F140C3083120313A000A00BB22842
:10016800000008000A128A116C200A128A11760807
:100178007704031DC028C128BB28831203139F18C6
:10018800C628C728BB289F14BB280A128A110C2826
:10019800F1007108831203178D0070088C00831614
:1001A80003178C130C158B1355308D00AA308D0056
:1001B8008C140C110B108B170800F00070088312B8
:1001C80003178D00831603178C130C14831203175F
:0401D8000C08080007
:08400000FF3FFF3FFF3FFF3FC0
:04400E00D420FF3F7C
:00000001FF
